{
  "contractName": "Records",
  "abi": [
    {
      "inputs": [],
      "payable": false,
      "stateMutability": "nonpayable",
      "type": "constructor",
      "signature": "constructor"
    },
    {
      "constant": false,
      "inputs": [
        {
          "name": "transaction_id",
          "type": "string"
        },
        {
          "name": "hashed",
          "type": "string"
        }
      ],
      "name": "saveRecord",
      "outputs": [
        {
          "name": "",
          "type": "string"
        }
      ],
      "payable": false,
      "stateMutability": "nonpayable",
      "type": "function",
      "signature": "0x78f6da7a"
    },
    {
      "constant": true,
      "inputs": [
        {
          "name": "transaction_id",
          "type": "string"
        },
        {
          "name": "hashed",
          "type": "string"
        }
      ],
      "name": "verifyRecord",
      "outputs": [
        {
          "name": "",
          "type": "bool"
        }
      ],
      "payable": false,
      "stateMutability": "view",
      "type": "function",
      "signature": "0x3de2e8e9"
    },
    {
      "constant": true,
      "inputs": [
        {
          "name": "_a",
          "type": "string"
        },
        {
          "name": "_b",
          "type": "string"
        }
      ],
      "name": "compare",
      "outputs": [
        {
          "name": "",
          "type": "int256"
        }
      ],
      "payable": false,
      "stateMutability": "pure",
      "type": "function",
      "signature": "0x3a96fdd7"
    },
    {
      "constant": true,
      "inputs": [
        {
          "name": "_a",
          "type": "string"
        },
        {
          "name": "_b",
          "type": "string"
        }
      ],
      "name": "equal",
      "outputs": [
        {
          "name": "",
          "type": "bool"
        }
      ],
      "payable": false,
      "stateMutability": "pure",
      "type": "function",
      "signature": "0x46bdca9a"
    }
  ],
  "bytecode": "0x608060405234801561001057600080fd5b50610c35806100206000396000f3fe608060405260043610610062576000357c0100000000000000000000000000000000000000000000000000000000900463ffffffff1680633a96fdd7146100675780633de2e8e9146101da57806346bdca9a1461035157806378f6da7a146104c8575b600080fd5b34801561007357600080fd5b506101c46004803603604081101561008a57600080fd5b81019080803590602001906401000000008111156100a757600080fd5b8201836020820111156100b957600080fd5b803590602001918460018302840111640100000000831117156100db57600080fd5b91908080601f016020809104026020016040519081016040528093929190818152602001838380828437600081840152601f19601f8201169050808301925050505050505091929192908035906020019064010000000081111561013e57600080fd5b82018360208201111561015057600080fd5b8035906020019184600183028401116401000000008311171561017257600080fd5b91908080601f016020809104026020016040519081016040528093929190818152602001838380828437600081840152601f19601f8201169050808301925050505050505091929192905050506106a0565b6040518082815260200191505060405180910390f35b3480156101e657600080fd5b50610337600480360360408110156101fd57600080fd5b810190808035906020019064010000000081111561021a57600080fd5b82018360208201111561022c57600080fd5b8035906020019184600183028401116401000000008311171561024e57600080fd5b91908080601f016020809104026020016040519081016040528093929190818152602001838380828437600081840152601f19601f820116905080830192505050505050509192919290803590602001906401000000008111156102b157600080fd5b8201836020820111156102c357600080fd5b803590602001918460018302840111640100000000831117156102e557600080fd5b91908080601f016020809104026020016040519081016040528093929190818152602001838380828437600081840152601f19601f820116905080830192505050505050509192919290505050610966565b604051808215151515815260200191505060405180910390f35b34801561035d57600080fd5b506104ae6004803603604081101561037457600080fd5b810190808035906020019064010000000081111561039157600080fd5b8201836020820111156103a357600080fd5b803590602001918460018302840111640100000000831117156103c557600080fd5b91908080601f016020809104026020016040519081016040528093929190818152602001838380828437600081840152601f19601f8201169050808301925050505050505091929192908035906020019064010000000081111561042857600080fd5b82018360208201111561043a57600080fd5b8035906020019184600183028401116401000000008311171561045c57600080fd5b91908080601f016020809104026020016040519081016040528093929190818152602001838380828437600081840152601f19601f820116905080830192505050505050509192919290505050610a8e565b604051808215151515815260200191505060405180910390f35b3480156104d457600080fd5b50610625600480360360408110156104eb57600080fd5b810190808035906020019064010000000081111561050857600080fd5b82018360208201111561051a57600080fd5b8035906020019184600183028401116401000000008311171561053c57600080fd5b91908080601f016020809104026020016040519081016040528093929190818152602001838380828437600081840152601f19601f8201169050808301925050505050505091929192908035906020019064010000000081111561059f57600080fd5b8201836020820111156105b157600080fd5b803590602001918460018302840111640100000000831117156105d357600080fd5b91908080601f016020809104026020016040519081016040528093929190818152602001838380828437600081840152601f19601f820116905080830192505050505050509192919290505050610aa4565b6040518080602001828103825283818151815260200191508051906020019080838360005b8381101561066557808201518184015260208101905061064a565b50505050905090810190601f1680156106925780820380516001836020036101000a031916815260200191505b509250505060405180910390f35b60006060839050606083905060008251905080825110156106c057815190505b60008090505b8181101561090c5782818151811015156106dc57fe5b9060200101517f010000000000000000000000000000000000000000000000000000000000000090047f0100000000000000000000000000000000000000000000000000000000000000027effffffffffffffffffffffffffffffffffffffffffffffffffffffffffffff1916848281518110151561075757fe5b9060200101517f010000000000000000000000000000000000000000000000000000000000000090047f0100000000000000000000000000000000000000000000000000000000000000027effffffffffffffffffffffffffffffffffffffffffffffffffffffffffffff191610156107f6577fffffffffffffffffffffffffffffffffffffffffffffffffffffffffffffffff945050505050610960565b828181518110151561080457fe5b9060200101517f010000000000000000000000000000000000000000000000000000000000000090047f0100000000000000000000000000000000000000000000000000000000000000027effffffffffffffffffffffffffffffffffffffffffffffffffffffffffffff1916848281518110151561087f57fe5b9060200101517f010000000000000000000000000000000000000000000000000000000000000090047f0100000000000000000000000000000000000000000000000000000000000000027effffffffffffffffffffffffffffffffffffffffffffffffffffffffffffff191611156108ff576001945050505050610960565b80806001019150506106c6565b50815183511015610942577fffffffffffffffffffffffffffffffffffffffffffffffffffffffffffffffff9350505050610960565b8151835111156109585760019350505050610960565b600093505050505b92915050565b6000610a75826000856040518082805190602001908083835b6020831015156109a4578051825260208201915060208101905060208303925061097f565b6001836020036101000a03801982511681845116808217855250505050505090500191505090815260200160405180910390208054600181600116156101000203166002900480601f016020809104026020016040519081016040528092919081815260200182805460018160011615610100020316600290048015610a6b5780601f10610a4057610100808354040283529160200191610a6b565b820191906000526020600020905b815481529060010190602001808311610a4e57829003601f168201915b5050505050610a8e565b15610a835760019050610a88565b600090505b92915050565b600080610a9b84846106a0565b14905092915050565b6060816000846040518082805190602001908083835b602083101515610adf5780518252602082019150602081019050602083039250610aba565b6001836020036101000a03801982511681845116808217855250505050505090500191505090815260200160405180910390209080519060200190610b25929190610b64565b506040805190810160405280601381526020017f536176656420746f20626c6f636b636861696e00000000000000000000000000815250905092915050565b828054600181600116156101000203166002900490600052602060002090601f016020900481019282601f10610ba557805160ff1916838001178555610bd3565b82800160010185558215610bd3579182015b82811115610bd2578251825591602001919060010190610bb7565b5b509050610be09190610be4565b5090565b610c0691905b80821115610c02576000816000905550600101610bea565b5090565b9056fea165627a7a723058200b1292f1f95f9e6e6563ed67e183d256a1a2dd098b97822c96042241ce4248c10029",
  "source": "pragma solidity >=0.4.21 <0.6.0;\r\n//import \"./StringUtils.sol\";\r\n\r\ncontract Records {\r\n\r\n    mapping (string => string) records;\r\n\r\n    constructor() public { }\r\n\r\n    function saveRecord(string memory transaction_id, string memory hashed)\r\n    public returns (string memory) {\r\n        records[transaction_id] = hashed;\r\n        return \"Saved to blockchain\";\r\n    }\r\n\r\n    function verifyRecord(string memory transaction_id, string memory hashed)\r\n    public view returns(bool) {\r\n        if (equal(hashed, records[transaction_id])) {\r\n            return true;\r\n        }\r\n        return false;\r\n    }\r\n\r\n    function compare(string memory _a, string memory _b) public pure returns (int) {\r\n\r\n        bytes memory a = bytes(_a);\r\n        bytes memory b = bytes(_b);\r\n        uint minLength = a.length;\r\n        if (b.length < minLength) minLength = b.length;\r\n        \r\n        for (uint i = 0; i < minLength; i ++)\r\n            if (a[i] < b[i]) return -1;\r\n            else if (a[i] > b[i]) return 1;\r\n        if (a.length < b.length)\r\n            return -1;\r\n        else if (a.length > b.length)\r\n            return 1;\r\n        else\r\n            return 0;\r\n    }\r\n    \r\n    function equal(string memory _a, string memory _b) public pure returns (bool) {\r\n        return compare(_a, _b) == 0;\r\n    }\r\n\r\n}",
  "sourcePath": "S:/Projects/EVM/ethereum/contracts/Records.sol",
  "compiler": {
    "name": "solc",
    "version": "0.5.0+commit.1d4f565a.Emscripten.clang"
  },
  "schemaVersion": "3.0.1",
  "updatedAt": "2019-05-30T04:20:04.842Z",
  "devdoc": {
    "methods": {}
  },
  "userdoc": {
    "methods": {}
  }
}